:100000000C945D000C9485000C9485000C94850084
:100010000C9485000C9485000C9485000C9485004C
:100020000C9485000C9485000C9485000C9485003C
:100030000C9485000C9485000C9485000C9485002C
:100040000C94E4020C9485000C9454030C942E033D
:100050000C9485000C9485000C9485000C9485000C
:100060000C9485000C94850000000008000201003B
:100070000003040700000000000000000000000072
:10008000250028002B0000000000240027002A0083
:10009000040404040404040402020202020203032E
:1000A0000303030301020408102040800102040836
:1000B0001020010204081020860311241FBECFEF78
:1000C000D8E0DEBFCDBF11E0A0E0B1E0E2E8FDE0A6
:1000D00002C005900D92AA38B107D9F722E0AAE82C
:1000E000B1E001C01D92A235B207E1F710E0CDE505
:1000F000D0E004C02197FE010E948305CC35D107D2
:10010000C9F70E94B5030C94BF060C94000090E060
:10011000FC01EC55FF4F2491FC01E057FF4F849107
:10012000882399F090E0880F991FFC01EA57FF4F50
:10013000A591B491FC01E458FF4F859194918FB73C
:10014000F894EC91E22BEC938FBF0895FC01808131
:10015000823061F018F4813031F00895833049F035
:10016000843049F008956093B30008956093B4001B
:10017000089567BD089568BD089590E0FC01E859B1
:10018000FF4F2491FC01EC55FF4F3491FC01E057E7
:10019000FF4FE491EE2309F43CC0222339F12330D0
:1001A00091F038F42130A9F0223001F584B58F7D2B
:1001B00012C0273091F02830A1F02430B9F480919A
:1001C00080008F7D03C0809180008F7780938000B6
:1001D0000DC084B58F7784BD09C08091B0008F7742
:1001E00003C08091B0008F7D8093B000F0E0EE0FEF
:1001F000FF1FE458FF4FA591B4919FB7F894611188
:1002000004C08C913095382302C0EC913E2B3C9376
:100210009FBF0895CF93DF9360E08CE00E94BD0004
:1002200060E088E00E94BD00C7E0D0E060E084E0CC
:100230000E94BD008091B30190E00C2E02C0959504
:1002400087950A94E2F780FF02C061E001C060E098
:1002500088E00E94BD0061E084E00E94BD0021971B
:1002600028F761E08CE0DF91CF910C94BD00FC0198
:100270008081823049F018F4813079F0089583301C
:1002800031F0843039F0089524E031E008C027E0EF
:1002900035E005C026E030E002C023E032E0623005
:1002A000A9F0643029F16130B9F581E090E0AC014A
:1002B00001C0440F3A95EAF73091B301432B01C0D6
:1002C000880F2A95EAF78095842322C081E090E088
:1002D000AC0101C0440F3A95EAF7342F30954091B4
:1002E000B301342301C0880F2A95EAF7832B10C08D
:1002F00041E050E0CA0101C0880F3A95EAF701C019
:10030000440F2A95EAF7842B80959091B3018923B5
:100310008093B3010C940A0108958CE00E94870039
:1003200087E00E94870088E00E94870084E00E94A6
:1003300087001092B3010E940A0160E087E00C94EC
:10034000BD00CF92DF92EF92FF920F931F93CF9356
:10035000DF936C017A018B01C0E0D0E0CE15DF05A0
:1003600081F0D8016D918D01D601ED91FC91019044
:10037000F081E02DC6010995892B11F02196EECF71
:100380007E01C701DF91CF911F910F91FF90EF90F8
:10039000DF90CF900895089580E090E00895FC01EB
:1003A000538D448D252F30E0842F90E0821B930BDA
:1003B000541710F0CF96089501970895FC01918D80
:1003C000828D981761F0828DDF01A80FB11D5D96B7
:1003D0008C91928D9F5F9F73928F90E008958FEF25
:1003E0009FEF0895FC01918D828D981731F0828DD9
:1003F000E80FF11D858D90E008958FEF9FEF089530
:10040000FC01918D228D892F90E0805C9F4F821B93
:1004100091098F739927089584EB91E00E9400025F
:1004200021E0892B09F420E0822F0895FC01848DBE
:10043000DF01A80FB11DA35ABF4F2C91848D90E00E
:1004400001968F739927848FA689B7892C93A089E9
:10045000B1898C91837080648C93938D848D981373
:1004600006C00288F389E02D80818F7D8083089506
:10047000EF92FF920F931F93CF93DF93EC0181E0F4
:10048000888F9B8D8C8D981305C0E889F9898081B0
:1004900085FD26C0F62E0B8D10E00F5F1F4F0F73EA
:1004A0001127E02E8C8DE8120CC00FB607FCFACF96
:1004B000E889F989808185FFF5CFCE010E94160277
:1004C000F1CF8B8DFE01E80FF11DE35AFF4FF08253
:1004D0009FB7F8940B8FEA89FB89808180620AC0FC
:1004E0009FB7F894EE89FF896083E889F989808154
:1004F0008370806480839FBF81E090E0DF91CF9123
:100500001F910F91FF90EF900895CF93DF93EC012F
:10051000888D8823C9F0EA89FB89808185FD05C023
:10052000A889B9898C9186FD0FC00FB607FCF5CF5D
:10053000808185FFF2CFA889B9898C9185FFEDCFA5
:10054000CE010E941602E7CFDF91CF91089580E09F
:1005500090E0892B29F00E940C0281110C9400007C
:100560000895009769F0FC0101900020E9F73197A8
:10057000AF01481B590BBC0184EB91E00C94A10125
:1005800080E090E00895CF93DF930E94B102EC01E8
:1005900082E191E00E94B1028C0F9D1FDF91CF910B
:1005A0000895CF93DF93682F84EB91E00E94380287
:1005B000EC0182E191E00E94B1028C0F9D1FDF915E
:1005C000CF9108950E94BA061F920F920FB60F9214
:1005D00011242F933F938F939F93AF93BF93809159
:1005E000AF019091B001A091B101B091B2013091F1
:1005F000AE0123E0230F2D3720F40196A11DB11D7C
:1006000005C026E8230F0296A11DB11D2093AE015F
:100610008093AF019093B001A093B101B093B20168
:100620008091AA019091AB01A091AC01B091AD0174
:100630000196A11DB11D8093AA019093AB01A093D7
:10064000AC01B093AD01BF91AF919F918F913F915C
:100650002F910F900FBE0F901F9018951F920F9221
:100660000FB60F9211242F933F934F935F936F9385
:100670007F938F939F93AF93BF93EF93FF9384EBFD
:1006800091E00E941602FF91EF91BF91AF919F916F
:100690008F917F916F915F914F913F912F910F902B
:1006A0000FBE0F901F9018951F920F920FB60F92CA
:1006B00011242F938F939F93EF93FF93E091C401A5
:1006C000F091C5018081E091CA01F091CB0182FDDA
:1006D00012C090818091CD018F5F8F732091CE01E8
:1006E000821751F0E091CD01F0E0EC54FE4F958F70
:1006F0008093CD0101C08081FF91EF919F918F91F7
:100700002F910F900FBE0F901F901895E4EBF1E022
:100710001382128288EE93E0A0E0B0E08483958398
:10072000A683B78384E091E09183808385EC90E099
:100730009587848784EC90E09787868780EC90E0AB
:10074000918B808B81EC90E0938B828B82EC90E09C
:10075000958B848B86EC90E0978B868B118E128E16
:10076000138E148E109251020895CF93DF93CDB75C
:10077000DEB7A5970FB6F894DEBF0FBECDBF789455
:1007800084B5826084BD84B5816084BD85B5826096
:1007900085BD85B5816085BD80916E008160809347
:1007A0006E001092810080918100826080938100B0
:1007B00080918100816080938100809180008160C0
:1007C000809380008091B10084608093B10080911B
:1007D000B00081608093B00080917A008460809343
:1007E0007A0080917A00826080937A0080917A000A
:1007F000816080937A0080917A00806880937A008B
:100800001092C100E091C401F091C50182E08083A3
:10081000E091C001F091C1011082E091C201F0911C
:10082000C3018FEC80831092CC01E091C801F0915C
:10083000C90186E08083E091C601F091C701808103
:1008400080618083E091C601F091C701808188605A
:100850008083E091C601F091C70180818068808328
:10086000E091C601F091C70180818F7D80838BE18B
:1008700093E00197F1F701E08CE1682E9BE8C92E27
:10088000DD24D39413E024E0722E3AE0832E912CE1
:10089000A12CB12C84EB91E00E94000218161906DD
:1008A00084F584EB91E00E940002181619064CF5BD
:1008B00084EB91E00E94DE0190918B019923E9F095
:1008C000E0918A018E3371F0AE2FB0E0A457BE4F95
:1008D0008C93EF5FED3118F4E0938A0112C06092BF
:1008E0008A010FC0F0E0E457FE4F108210928B0196
:1008F00010928A010093A90104C08C3311F4009373
:100900008B018091A901882309F4D8C01092A90114
:1009100080918C01843551F4C6010197F1F785E18E
:1009200091E00E94C30285E391E0C6C08D3409F0D6
:10093000C1C0C6010197F1F788E591E00E94C302AA
:100940001CA31DA30E948D018091B3018F7580931C
:10095000B3010E940A0184B5836884BD17BC86E098
:100960000E9487007AA21BA30E948D018091B3018F
:100970008E7B8093B3010E940A0184B5836284BD9B
:1009800018BC85E00E94870060919001062E000C43
:10099000770B60537109072E000C880B990B0E948E
:1009A000C10520E030E04CEC51E40E9425060E9495
:1009B00089051B012C01CE0184960E94A600622DA0
:1009C000CE0182960E94A60080918E01863411F499
:1009D00061E007C0823411F462E00CC08C3439F459
:1009E00062E0CE0184960E94370161E008C0823542
:1009F00051F461E0CE0184960E94370162E0CE019D
:100A000082960E94370181E691E00E94B1028091B6
:100A100090010E94D1028CE691E00E94B102032C69
:100A2000000C4408550857FE20C06DE284EB91E0AD
:100A30000E94380222273327A901221933094409C9
:100A4000550919A2CE0181967C01CA01B901A501FF
:100A500094010E946105605DF70162937F01211599
:100A600031054105510589F715C0A201910119A26F
:100A7000CE0181967C01CA01B901A50194010E94B1
:100A80006105605DF70162937F0121153105410524
:100A9000510589F7C7010E94B10282E191E00E94ED
:100AA000B10283E791E00E94B10280918E010E9421
:100AB000D10204C088E791E00E94C3020E94A7020D
:100AC000E9CEA1E21A2EAA1BBB1BFD010DC0AA1F75
:100AD000BB1FEE1FFF1FA217B307E407F50720F0A7
:100AE000A21BB30BE40BF50B661F771F881F991F22
:100AF0001A9469F760957095809590959B01AC016B
:100B0000BD01CF010895EE0FFF1F0590F491E02D78
:100B100009940E9490056894B1110C941F060895E1
:100B20000E94040688F09F5798F0B92F9927B75173
:100B3000B0F0E1F0660F771F881F991F1AF0BA9581
:100B4000C9F714C0B13091F00E941E06B1E00895BB
:100B50000C941E06672F782F8827B85F39F0B93FAD
:100B6000CCF3869577956795B395D9F73EF4909534
:100B70008095709561957F4F8F4F9F4F0895E894B2
:100B800009C097FB3EF490958095709561957F4FD5
:100B90008F4F9F4F9923A9F0F92F96E9BB27939583
:100BA000F695879577956795B795F111F8CFFAF493
:100BB000BB0F11F460FF1BC06F5F7F4F8F4F9F4FC4
:100BC00016C0882311F096E911C0772321F09EE822
:100BD000872F762F05C0662371F096E8862F70E088
:100BE00060E02AF09A95660F771F881FDAF7880F62
:100BF0009695879597F9089557FD9058440F551F7E
:100C000059F05F3F71F04795880F97FB991F61F08E
:100C10009F3F79F087950895121613061406551F05
:100C2000F2CF4695F1DF08C0161617061806991F71
:100C3000F1CF86957105610508940895E894BB2766
:100C400066277727CB0197F908950E9438060C9400
:100C5000A9060E949B0638F00E94A20620F0952368
:100C600011F00C9492060C94980611240C941F0613
:100C70000E94FC0570F3959FC1F3950F50E0551F3E
:100C8000629FF001729FBB27F00DB11D639FAA27E1
:100C9000F00DB11DAA1F649F6627B00DA11D661F30
:100CA000829F2227B00DA11D621F739FB00DA11D51
:100CB000621F839FA00D611D221F749F3327A00D0B
:100CC000611D231F849F600D211D822F762F6A2FA7
:100CD00011249F5750409AF0F1F088234AF0EE0F0C
:100CE000FF1FBB1F661F771F881F91505040A9F739
:100CF0009E3F510580F00C9492060C941F065F3FB6
:100D0000E4F3983ED4F3869577956795B795F79574
:100D1000E7959F5FC1F7FE2B880F911D96958795EC
:100D200097F9089597F99F6780E870E060E008956B
:100D30009FEF80EC089500240A94161617061806F3
:100D40000906089500240A941216130614060506CF
:100D50000895092E0394000C11F4882352F0BB0F60
:100D600040F4BF2B11F460FF04C06F5F7F4F8F4FC3
:100D70009F4F089581E090E0F8940C94BF06F8949A
:020D8000FFCFA3
:100D8200000000003802A101CF0185020002DE014D
:100D9200F2010D0A0033447374756666734E4C207B
:100DA200536C69646572204669726D776172652061
:100DB20056302E330057616974696E6720666F7210
:100DC20020636F6D6D616E6420746F2070726F634B
:100DD2006573732E2E2E0A004D20676F7474656E34
:100DE200005370656564436861723A0053706565CB
:100DF200643A004449523A00556E6B6E6F77204355
:0A0E02006F6D6D616E642021210008
:00000001FF
